{
  "contractName": "ERC721Enumerable",
  "abi": [
    {
      "inputs": [],
      "stateMutability": "nonpayable",
      "type": "constructor"
    },
    {
      "anonymous": false,
      "inputs": [
        {
          "indexed": true,
          "internalType": "address",
          "name": "_owner",
          "type": "address"
        },
        {
          "indexed": true,
          "internalType": "address",
          "name": "_approved",
          "type": "address"
        },
        {
          "indexed": true,
          "internalType": "uint256",
          "name": "_tokenId",
          "type": "uint256"
        }
      ],
      "name": "Approval",
      "type": "event"
    },
    {
      "anonymous": false,
      "inputs": [
        {
          "indexed": true,
          "internalType": "address",
          "name": "_from",
          "type": "address"
        },
        {
          "indexed": true,
          "internalType": "address",
          "name": "_to",
          "type": "address"
        },
        {
          "indexed": true,
          "internalType": "uint256",
          "name": "_tokenId",
          "type": "uint256"
        }
      ],
      "name": "Transfer",
      "type": "event"
    },
    {
      "inputs": [
        {
          "internalType": "address",
          "name": "_to",
          "type": "address"
        },
        {
          "internalType": "uint256",
          "name": "tokenId",
          "type": "uint256"
        }
      ],
      "name": "approve",
      "outputs": [],
      "stateMutability": "nonpayable",
      "type": "function"
    },
    {
      "inputs": [
        {
          "internalType": "address",
          "name": "_owner",
          "type": "address"
        }
      ],
      "name": "balanceOf",
      "outputs": [
        {
          "internalType": "uint256",
          "name": "",
          "type": "uint256"
        }
      ],
      "stateMutability": "view",
      "type": "function"
    },
    {
      "inputs": [
        {
          "internalType": "uint256",
          "name": "_tokenId",
          "type": "uint256"
        }
      ],
      "name": "ownerOf",
      "outputs": [
        {
          "internalType": "address",
          "name": "",
          "type": "address"
        }
      ],
      "stateMutability": "view",
      "type": "function"
    },
    {
      "inputs": [
        {
          "internalType": "bytes4",
          "name": "interfaceId",
          "type": "bytes4"
        }
      ],
      "name": "supportsInterface",
      "outputs": [
        {
          "internalType": "bool",
          "name": "",
          "type": "bool"
        }
      ],
      "stateMutability": "view",
      "type": "function"
    },
    {
      "inputs": [
        {
          "internalType": "address",
          "name": "_from",
          "type": "address"
        },
        {
          "internalType": "address",
          "name": "_to",
          "type": "address"
        },
        {
          "internalType": "uint256",
          "name": "_tokenId",
          "type": "uint256"
        }
      ],
      "name": "transferFrom",
      "outputs": [],
      "stateMutability": "nonpayable",
      "type": "function"
    },
    {
      "inputs": [
        {
          "internalType": "uint256",
          "name": "index",
          "type": "uint256"
        }
      ],
      "name": "tokenByIndex",
      "outputs": [
        {
          "internalType": "uint256",
          "name": "",
          "type": "uint256"
        }
      ],
      "stateMutability": "view",
      "type": "function"
    },
    {
      "inputs": [
        {
          "internalType": "address",
          "name": "owner",
          "type": "address"
        },
        {
          "internalType": "uint256",
          "name": "index",
          "type": "uint256"
        }
      ],
      "name": "tokenOfOwnerByIndex",
      "outputs": [
        {
          "internalType": "uint256",
          "name": "",
          "type": "uint256"
        }
      ],
      "stateMutability": "view",
      "type": "function"
    },
    {
      "inputs": [],
      "name": "totalSupply",
      "outputs": [
        {
          "internalType": "uint256",
          "name": "",
          "type": "uint256"
        }
      ],
      "stateMutability": "view",
      "type": "function"
    }
  ],
  "bytecode": "0x60806040523480156200001157600080fd5b50620000437f01ffc9a7a5cef8baa21ed3c5c0d7e23accb804b619e9333b597f47a0d84076e26200013360201b60201c565b620000b87f22c82707ba960a14c7592ffb6b8cfaa073fed0048a84cc7fa41f6b5bd8e7f2e47f3a6eb71757dfc6e784c1459d26270140c2c147d95ca985c80026fc5301c3eca17f8a7e378434598edc36d108689a030cbc9d7d465de4f74c71bae1028eed6a881b18186200013360201b60201c565b6200012d7f8230223f691b981717299fae9549350a0d894555723531f02108b1f522c1a7977f6da5e1284143cdd2d15038a59bde3be031250f00291d64494c12d967b3a4e0c37fc53637662700e6c65104059db8bba34439e0c32483ab7c34e3ccae52c739549518186200013360201b60201c565b6200028d565b63ffffffff60e01b817bffffffffffffffffffffffffffffffffffffffffffffffffffffffff1916036200019e576040517f08c379a000000000000000000000000000000000000000000000000000000000815260040162000195906200026b565b60405180910390fd5b6001600080837bffffffffffffffffffffffffffffffffffffffffffffffffffffffff19167bffffffffffffffffffffffffffffffffffffffffffffffffffffffff1916815260200190815260200160002060006101000a81548160ff02191690831515021790555050565b600082825260208201905092915050565b7f696e76616c696420696e74657266616365207265717565737400000000000000600082015250565b6000620002536019836200020a565b915062000260826200021b565b602082019050919050565b60006020820190508181036000830152620002868162000244565b9050919050565b6111d8806200029d6000396000f3fe608060405234801561001057600080fd5b50600436106100885760003560e01c80632f745c591161005b5780632f745c59146101135780634f6ccce7146101435780636352211e1461017357806370a08231146101a357610088565b806301ffc9a71461008d578063095ea7b3146100bd57806318160ddd146100d957806323b872dd146100f7575b600080fd5b6100a760048036038101906100a29190610a2f565b6101d3565b6040516100b49190610a77565b60405180910390f35b6100d760048036038101906100d29190610b26565b61023a565b005b6100e16103d5565b6040516100ee9190610b75565b60405180910390f35b610111600480360381019061010c9190610b90565b6103e2565b005b61012d60048036038101906101289190610b26565b610405565b60405161013a9190610b75565b60405180910390f35b61015d60048036038101906101589190610be3565b6104b5565b60405161016a9190610b75565b60405180910390f35b61018d60048036038101906101889190610be3565b610524565b60405161019a9190610c1f565b60405180910390f35b6101bd60048036038101906101b89190610c3a565b6105d5565b6040516101ca9190610b75565b60405180910390f35b6000806000837bffffffffffffffffffffffffffffffffffffffffffffffffffffffff19167bffffffffffffffffffffffffffffffffffffffffffffffffffffffff1916815260200190815260200160002060009054906101000a900460ff169050919050565b600061024582610524565b90508073ffffffffffffffffffffffffffffffffffffffff168373ffffffffffffffffffffffffffffffffffffffff16036102b5576040517f08c379a00000000000000000000000000000000000000000000000000000000081526004016102ac90610cc4565b60405180910390fd5b8073ffffffffffffffffffffffffffffffffffffffff163373ffffffffffffffffffffffffffffffffffffffff1614610323576040517f08c379a000000000000000000000000000000000000000000000000000000000815260040161031a90610d56565b60405180910390fd5b826003600084815260200190815260200160002060006101000a81548173ffffffffffffffffffffffffffffffffffffffff021916908373ffffffffffffffffffffffffffffffffffffffff160217905550818373ffffffffffffffffffffffffffffffffffffffff168273ffffffffffffffffffffffffffffffffffffffff167f8c5be1e5ebec7d5bd14f71427d1e84f3dd0314c0f7b2291e5b200ac8c7c3b92560405160405180910390a4505050565b6000600480549050905090565b6103ec338261068c565b6103f557600080fd5b61040083838361071b565b505050565b6000610410836105d5565b8210610451576040517f08c379a000000000000000000000000000000000000000000000000000000000815260040161044890610dc2565b60405180910390fd5b600660008473ffffffffffffffffffffffffffffffffffffffff1673ffffffffffffffffffffffffffffffffffffffff16815260200190815260200160002082815481106104a2576104a1610de2565b5b9060005260206000200154905092915050565b600060048054905082106104fe576040517f08c379a00000000000000000000000000000000000000000000000000000000081526004016104f590610e5d565b60405180910390fd5b6004828154811061051257610511610de2565b5b90600052602060002001549050919050565b6000806001600084815260200190815260200160002060009054906101000a900473ffffffffffffffffffffffffffffffffffffffff169050600073ffffffffffffffffffffffffffffffffffffffff168173ffffffffffffffffffffffffffffffffffffffff16036105cc576040517f08c379a00000000000000000000000000000000000000000000000000000000081526004016105c390610ec9565b60405180910390fd5b80915050919050565b60008073ffffffffffffffffffffffffffffffffffffffff168273ffffffffffffffffffffffffffffffffffffffff1603610645576040517f08c379a000000000000000000000000000000000000000000000000000000000815260040161063c90610f5b565b60405180910390fd5b600260008373ffffffffffffffffffffffffffffffffffffffff1673ffffffffffffffffffffffffffffffffffffffff168152602001908152602001600020549050919050565b600061069782610960565b6106d6576040517f08c379a00000000000000000000000000000000000000000000000000000000081526004016106cd90610fc7565b60405180910390fd5b60006106e183610524565b90508073ffffffffffffffffffffffffffffffffffffffff168473ffffffffffffffffffffffffffffffffffffffff161491505092915050565b600073ffffffffffffffffffffffffffffffffffffffff168273ffffffffffffffffffffffffffffffffffffffff160361078a576040517f08c379a000000000000000000000000000000000000000000000000000000000815260040161078190611059565b60405180910390fd5b8273ffffffffffffffffffffffffffffffffffffffff166107aa82610524565b73ffffffffffffffffffffffffffffffffffffffff1614610800576040517f08c379a00000000000000000000000000000000000000000000000000000000081526004016107f7906110eb565b60405180910390fd5b6001600260008573ffffffffffffffffffffffffffffffffffffffff1673ffffffffffffffffffffffffffffffffffffffff1681526020019081526020016000206000828254610850919061113a565b925050819055506001600260008473ffffffffffffffffffffffffffffffffffffffff1673ffffffffffffffffffffffffffffffffffffffff16815260200190815260200160002060008282546108a7919061116e565b92505081905550816001600083815260200190815260200160002060006101000a81548173ffffffffffffffffffffffffffffffffffffffff021916908373ffffffffffffffffffffffffffffffffffffffff160217905550808273ffffffffffffffffffffffffffffffffffffffff168473ffffffffffffffffffffffffffffffffffffffff167fddf252ad1be2c89b69c2b068fc378daa952ba7f163c4a11628f55a4df523b3ef60405160405180910390a4505050565b6000806001600084815260200190815260200160002060009054906101000a900473ffffffffffffffffffffffffffffffffffffffff169050600073ffffffffffffffffffffffffffffffffffffffff168173ffffffffffffffffffffffffffffffffffffffff161415915050919050565b600080fd5b60007fffffffff0000000000000000000000000000000000000000000000000000000082169050919050565b610a0c816109d7565b8114610a1757600080fd5b50565b600081359050610a2981610a03565b92915050565b600060208284031215610a4557610a446109d2565b5b6000610a5384828501610a1a565b91505092915050565b60008115159050919050565b610a7181610a5c565b82525050565b6000602082019050610a8c6000830184610a68565b92915050565b600073ffffffffffffffffffffffffffffffffffffffff82169050919050565b6000610abd82610a92565b9050919050565b610acd81610ab2565b8114610ad857600080fd5b50565b600081359050610aea81610ac4565b92915050565b6000819050919050565b610b0381610af0565b8114610b0e57600080fd5b50565b600081359050610b2081610afa565b92915050565b60008060408385031215610b3d57610b3c6109d2565b5b6000610b4b85828601610adb565b9250506020610b5c85828601610b11565b9150509250929050565b610b6f81610af0565b82525050565b6000602082019050610b8a6000830184610b66565b92915050565b600080600060608486031215610ba957610ba86109d2565b5b6000610bb786828701610adb565b9350506020610bc886828701610adb565b9250506040610bd986828701610b11565b9150509250925092565b600060208284031215610bf957610bf86109d2565b5b6000610c0784828501610b11565b91505092915050565b610c1981610ab2565b82525050565b6000602082019050610c346000830184610c10565b92915050565b600060208284031215610c5057610c4f6109d2565b5b6000610c5e84828501610adb565b91505092915050565b600082825260208201905092915050565b7f6572726f722d617070726f76616c20746f2063757272656e74206f776e657200600082015250565b6000610cae601f83610c67565b9150610cb982610c78565b602082019050919050565b60006020820190508181036000830152610cdd81610ca1565b9050919050565b7f63757272656e742063616c6c6572206973206e6f7420746865206f776e65722060008201527f6f6620746f6b656e000000000000000000000000000000000000000000000000602082015250565b6000610d40602883610c67565b9150610d4b82610ce4565b604082019050919050565b60006020820190508181036000830152610d6f81610d33565b9050919050565b7f6f776e64657220696e646578206973206f7574206f6620626f756e6473000000600082015250565b6000610dac601d83610c67565b9150610db782610d76565b602082019050919050565b60006020820190508181036000830152610ddb81610d9f565b9050919050565b7f4e487b7100000000000000000000000000000000000000000000000000000000600052603260045260246000fd5b7f676c6f62616c20696e646578206973206f7574206f6620626f756e6473000000600082015250565b6000610e47601d83610c67565b9150610e5282610e11565b602082019050919050565b60006020820190508181036000830152610e7681610e3a565b9050919050565b7f6f776e657220717565727920666f72206e6f6e2d6578697374656e7400000000600082015250565b6000610eb3601c83610c67565b9150610ebe82610e7d565b602082019050919050565b60006020820190508181036000830152610ee281610ea6565b9050919050565b7f6f776e657220717565727920666f72206e6f6e206578697374656e7420746f6b60008201527f656e000000000000000000000000000000000000000000000000000000000000602082015250565b6000610f45602283610c67565b9150610f5082610ee9565b604082019050919050565b60006020820190508181036000830152610f7481610f38565b9050919050565b7f746f6b656e20646f6573206e6f74206578697374000000000000000000000000600082015250565b6000610fb1601483610c67565b9150610fbc82610f7b565b602082019050919050565b60006020820190508181036000830152610fe081610fa4565b9050919050565b7f4e6f7420706f737369626c6520796f752063616e742073656e6420746f207a6560008201527f726f206164646565737300000000000000000000000000000000000000000000602082015250565b6000611043602a83610c67565b915061104e82610fe7565b604082019050919050565b6000602082019050818103600083015261107281611036565b9050919050565b7f747279696e6720746f207472616e66657220746f6b656e20746865206164647260008201527f65737320646f6573206e6f74206f776e00000000000000000000000000000000602082015250565b60006110d5603083610c67565b91506110e082611079565b604082019050919050565b60006020820190508181036000830152611104816110c8565b9050919050565b7f4e487b7100000000000000000000000000000000000000000000000000000000600052601160045260246000fd5b600061114582610af0565b915061115083610af0565b92508282039050818111156111685761116761110b565b5b92915050565b600061117982610af0565b915061118483610af0565b925082820190508082111561119c5761119b61110b565b5b9291505056fea2646970667358221220f7e76f77b1c76abe46489ad7a8968a0c708c62dcc2e52f0c00b69781020869d664736f6c63430008110033",
  "immutableReferences": {},
  "source": "// SPDX-License-Identifier: MIT\r\n\r\npragma solidity ^0.8.0;\r\n\r\nimport './ERC721.sol';\r\nimport './interfaces/IERC721Enumerable.sol';\r\n\r\n/**\r\n * @title ERC-721 Non-Fungible Token Standard, optional enumeration extension\r\n * @dev See https://eips.ethereum.org/EIPS/eip-721\r\n */\r\ncontract ERC721Enumerable is IERC721Enumerable, ERC721{\r\n\r\n    uint256[] private _allTokens;\r\n\r\n    // mapping from tokenId to position in _alltokens array\r\n\r\n    mapping(uint256 => uint256) private _allTokensIndex;\r\n\r\n\r\n    // mapping of owner to list of all owner token ids\r\n\r\n    mapping(address => uint256[]) private _ownedTokens;\r\n\r\n    // mapping from token ID index of the owner tokens list\r\n\r\n    mapping(uint256 => uint256) private _ownedTokensIndex; \r\n\r\n    constructor() {\r\n        _registerInterface(bytes4(keccak256('totalSupply(bytes4)')^\r\n        keccak256('tokenByIndex(bytes4)')^keccak256('tokenOfOwnerByIndex(bytes4)')));\r\n    }\r\n\r\n\r\n\r\n    /**\r\n     * @dev Returns a token ID owned by `owner` at a given `index` of its token list.\r\n     * Use along with {balanceOf} to enumerate all of ``owner``'s tokens.\r\n     */\r\n    //function tokenOfOwnerByIndex(address owner, uint256 index) external view returns (uint256 tokenId);\r\n\r\n    /**\r\n     * @dev Returns a token ID at a given `index` of all the tokens stored by the contract.\r\n     * Use along with {totalSupply} to enumerate all tokens.\r\n     */\r\n    //function tokenByIndex(uint256 index) external view returns (uint256);\r\n\r\n    function _mint(address to,uint256 tokenId) internal override(ERC721) {\r\n\r\n        super._mint(to, tokenId);\r\n        // add tokens to the owner\r\n        // add tokens to the total supply\r\n\r\n        _addTokensToAllTokenEnumeration(tokenId);\r\n        _addTokensToOwnerEnumeration(to, tokenId);\r\n\r\n\r\n\r\n    }\r\n\r\n    function  _addTokensToAllTokenEnumeration(uint256 tokenId) private {\r\n        _allTokensIndex[tokenId] =_allTokens.length;\r\n        _allTokens.push(tokenId);\r\n\r\n    }\r\n\r\n    function _addTokensToOwnerEnumeration(address to,uint256 tokenId) private {\r\n\r\n        //owndeTokenindex tokenId set to address of ownedTokens position\r\n        _ownedTokensIndex[tokenId] = _ownedTokens[to].length;\r\n\r\n        //add address and tokenId to the _ownedTokens\r\n        _ownedTokens[to].push(tokenId);\r\n        \r\n        //we want to execute the function with minting\r\n    }\r\n\r\n    // two functions - one that returns tokenByIndex and \r\n    // another one that returns tokenByOwnerIndex\r\n\r\n    function tokenByIndex(uint256 index) public override view returns(uint256) {\r\n        require(index < _allTokens.length, \"global index is out of bounds\");\r\n        return _allTokens[index];\r\n            }\r\n\r\n    function tokenOfOwnerByIndex(address owner, uint256 index) public override view returns(uint256) {\r\n        require(index < balanceOf(owner), \"ownder index is out of bounds\");\r\n        return _ownedTokens[owner][index];\r\n    }\r\n\r\n\r\n     function totalSupply() public override view returns (uint256){\r\n        return _allTokens.length;\r\n    }\r\n\r\n}\r\n",
  "sourcePath": "F:\\nft-marketplace-starter-kit-main\\src\\contracts\\ERC721Enumerable.sol",
  "compiler": {
    "name": "solc",
    "version": "0.8.17+commit.8df45f5f.Emscripten.clang"
  },
  "schemaVersion": "3.4.9",
  "updatedAt": "2022-09-20T09:07:38.927Z",
  "devdoc": {
    "details": "See https://eips.ethereum.org/EIPS/eip-721",
    "kind": "dev",
    "methods": {
      "totalSupply()": {
        "returns": {
          "_0": "A count of valid NFTs tracked by this contract, where each one of  them has an assigned and queryable owner not equal to the zero address"
        }
      },
      "transferFrom(address,address,uint256)": {
        "details": "Throws unless `msg.sender` is the current owner, an authorized  operator, or the approved address for this NFT. Throws if `_from` is  not the current owner. Throws if `_to` is the zero address. Throws if  `_tokenId` is not a valid NFT.",
        "params": {
          "_from": "The current owner of the NFT",
          "_to": "The new owner",
          "_tokenId": "The NFT to transfer"
        }
      }
    },
    "title": "ERC-721 Non-Fungible Token Standard, optional enumeration extension",
    "version": 1
  },
  "userdoc": {
    "kind": "user",
    "methods": {
      "totalSupply()": {
        "notice": "Count NFTs tracked by this contract"
      },
      "transferFrom(address,address,uint256)": {
        "notice": "Transfer ownership of an NFT -- THE CALLER IS RESPONSIBLE  TO CONFIRM THAT `_to` IS CAPABLE OF RECEIVING NFTS OR ELSE  THEY MAY BE PERMANENTLY LOST"
      }
    },
    "version": 1
  }
}