{
  "contractName": "KryptoBird",
  "abi": [
    {
      "inputs": [],
      "stateMutability": "nonpayable",
      "type": "constructor"
    },
    {
      "anonymous": false,
      "inputs": [
        {
          "indexed": true,
          "internalType": "address",
          "name": "_owner",
          "type": "address"
        },
        {
          "indexed": true,
          "internalType": "address",
          "name": "_approved",
          "type": "address"
        },
        {
          "indexed": true,
          "internalType": "uint256",
          "name": "_tokenId",
          "type": "uint256"
        }
      ],
      "name": "Approval",
      "type": "event"
    },
    {
      "anonymous": false,
      "inputs": [
        {
          "indexed": true,
          "internalType": "address",
          "name": "_from",
          "type": "address"
        },
        {
          "indexed": true,
          "internalType": "address",
          "name": "_to",
          "type": "address"
        },
        {
          "indexed": true,
          "internalType": "uint256",
          "name": "_tokenId",
          "type": "uint256"
        }
      ],
      "name": "Transfer",
      "type": "event"
    },
    {
      "inputs": [
        {
          "internalType": "address",
          "name": "_to",
          "type": "address"
        },
        {
          "internalType": "uint256",
          "name": "tokenId",
          "type": "uint256"
        }
      ],
      "name": "approve",
      "outputs": [],
      "stateMutability": "nonpayable",
      "type": "function"
    },
    {
      "inputs": [
        {
          "internalType": "address",
          "name": "_owner",
          "type": "address"
        }
      ],
      "name": "balanceOf",
      "outputs": [
        {
          "internalType": "uint256",
          "name": "",
          "type": "uint256"
        }
      ],
      "stateMutability": "view",
      "type": "function",
      "constant": true
    },
    {
      "inputs": [
        {
          "internalType": "uint256",
          "name": "",
          "type": "uint256"
        }
      ],
      "name": "kryptoBirdz",
      "outputs": [
        {
          "internalType": "string",
          "name": "",
          "type": "string"
        }
      ],
      "stateMutability": "view",
      "type": "function",
      "constant": true
    },
    {
      "inputs": [],
      "name": "name",
      "outputs": [
        {
          "internalType": "string",
          "name": "",
          "type": "string"
        }
      ],
      "stateMutability": "view",
      "type": "function",
      "constant": true
    },
    {
      "inputs": [
        {
          "internalType": "uint256",
          "name": "_tokenId",
          "type": "uint256"
        }
      ],
      "name": "ownerOf",
      "outputs": [
        {
          "internalType": "address",
          "name": "",
          "type": "address"
        }
      ],
      "stateMutability": "view",
      "type": "function",
      "constant": true
    },
    {
      "inputs": [
        {
          "internalType": "bytes4",
          "name": "interfaceId",
          "type": "bytes4"
        }
      ],
      "name": "supportsInterface",
      "outputs": [
        {
          "internalType": "bool",
          "name": "",
          "type": "bool"
        }
      ],
      "stateMutability": "view",
      "type": "function",
      "constant": true
    },
    {
      "inputs": [],
      "name": "symbol",
      "outputs": [
        {
          "internalType": "string",
          "name": "",
          "type": "string"
        }
      ],
      "stateMutability": "view",
      "type": "function",
      "constant": true
    },
    {
      "inputs": [
        {
          "internalType": "uint256",
          "name": "index",
          "type": "uint256"
        }
      ],
      "name": "tokenByIndex",
      "outputs": [
        {
          "internalType": "uint256",
          "name": "",
          "type": "uint256"
        }
      ],
      "stateMutability": "view",
      "type": "function",
      "constant": true
    },
    {
      "inputs": [
        {
          "internalType": "address",
          "name": "owner",
          "type": "address"
        },
        {
          "internalType": "uint256",
          "name": "index",
          "type": "uint256"
        }
      ],
      "name": "tokenOfOwnerByIndex",
      "outputs": [
        {
          "internalType": "uint256",
          "name": "",
          "type": "uint256"
        }
      ],
      "stateMutability": "view",
      "type": "function",
      "constant": true
    },
    {
      "inputs": [],
      "name": "totalSupply",
      "outputs": [
        {
          "internalType": "uint256",
          "name": "",
          "type": "uint256"
        }
      ],
      "stateMutability": "view",
      "type": "function",
      "constant": true
    },
    {
      "inputs": [
        {
          "internalType": "address",
          "name": "_from",
          "type": "address"
        },
        {
          "internalType": "address",
          "name": "_to",
          "type": "address"
        },
        {
          "internalType": "uint256",
          "name": "_tokenId",
          "type": "uint256"
        }
      ],
      "name": "transferFrom",
      "outputs": [],
      "stateMutability": "nonpayable",
      "type": "function"
    },
    {
      "inputs": [
        {
          "internalType": "string",
          "name": "_kryptoBird",
          "type": "string"
        }
      ],
      "name": "mint",
      "outputs": [],
      "stateMutability": "nonpayable",
      "type": "function"
    }
  ],
  "bytecode": "0x60806040523480156200001157600080fd5b506040518060400160405280600a81526020017f4b727970746f42697264000000000000000000000000000000000000000000008152506040518060400160405280600681526020017f4b424952445a00000000000000000000000000000000000000000000000000008152508181620000b17f01ffc9a7a5cef8baa21ed3c5c0d7e23accb804b619e9333b597f47a0d84076e26200021c60201b60201c565b620001047f13b182f4c0e5b2efbac0efe6cf6d756c8b89f4b79c5707a043ed9ea740574ee97f7feaf19471f34a12a7eaf32d5f3090aa2260ea8624dc8a138e74e0bf0f623076186200021c60201b60201c565b81600190816200011591906200056d565b5080600290816200012791906200056d565b5050506200019f7f22c82707ba960a14c7592ffb6b8cfaa073fed0048a84cc7fa41f6b5bd8e7f2e47f3a6eb71757dfc6e784c1459d26270140c2c147d95ca985c80026fc5301c3eca17f8a7e378434598edc36d108689a030cbc9d7d465de4f74c71bae1028eed6a881b18186200021c60201b60201c565b620002147f8230223f691b981717299fae9549350a0d894555723531f02108b1f522c1a7977f6da5e1284143cdd2d15038a59bde3be031250f00291d64494c12d967b3a4e0c37fc53637662700e6c65104059db8bba34439e0c32483ab7c34e3ccae52c739549518186200021c60201b60201c565b5050620006d7565b63ffffffff60e01b817bffffffffffffffffffffffffffffffffffffffffffffffffffffffff19160362000287576040517f08c379a00000000000000000000000000000000000000000000000000000000081526004016200027e90620006b5565b60405180910390fd5b6001600080837bffffffffffffffffffffffffffffffffffffffffffffffffffffffff19167bffffffffffffffffffffffffffffffffffffffffffffffffffffffff1916815260200190815260200160002060006101000a81548160ff02191690831515021790555050565b600081519050919050565b7f4e487b7100000000000000000000000000000000000000000000000000000000600052604160045260246000fd5b7f4e487b7100000000000000000000000000000000000000000000000000000000600052602260045260246000fd5b600060028204905060018216806200037557607f821691505b6020821081036200038b576200038a6200032d565b5b50919050565b60008190508160005260206000209050919050565b60006020601f8301049050919050565b600082821b905092915050565b600060088302620003f57fffffffffffffffffffffffffffffffffffffffffffffffffffffffffffffffff82620003b6565b620004018683620003b6565b95508019841693508086168417925050509392505050565b6000819050919050565b6000819050919050565b60006200044e62000448620004428462000419565b62000423565b62000419565b9050919050565b6000819050919050565b6200046a836200042d565b62000482620004798262000455565b848454620003c3565b825550505050565b600090565b620004996200048a565b620004a68184846200045f565b505050565b5b81811015620004ce57620004c26000826200048f565b600181019050620004ac565b5050565b601f8211156200051d57620004e78162000391565b620004f284620003a6565b8101602085101562000502578190505b6200051a6200051185620003a6565b830182620004ab565b50505b505050565b600082821c905092915050565b6000620005426000198460080262000522565b1980831691505092915050565b60006200055d83836200052f565b9150826002028217905092915050565b6200057882620002f3565b67ffffffffffffffff811115620005945762000593620002fe565b5b620005a082546200035c565b620005ad828285620004d2565b600060209050601f831160018114620005e55760008415620005d0578287015190505b620005dc85826200054f565b8655506200064c565b601f198416620005f58662000391565b60005b828110156200061f57848901518255600182019150602085019450602081019050620005f8565b868310156200063f57848901516200063b601f8916826200052f565b8355505b6001600288020188555050505b505050505050565b600082825260208201905092915050565b7f696e76616c696420696e74657266616365207265717565737400000000000000600082015250565b60006200069d60198362000654565b9150620006aa8262000665565b602082019050919050565b60006020820190508181036000830152620006d0816200068e565b9050919050565b611f4880620006e76000396000f3fe608060405234801561001057600080fd5b50600436106100b45760003560e01c80634f6ccce7116100715780634f6ccce71461018d5780636352211e146101bd57806370a08231146101ed57806393ab6e561461021d57806395d89b411461024d578063d85d3d271461026b576100b4565b806301ffc9a7146100b957806306fdde03146100e9578063095ea7b31461010757806318160ddd1461012357806323b872dd146101415780632f745c591461015d575b600080fd5b6100d360048036038101906100ce91906110e5565b610287565b6040516100e0919061112d565b60405180910390f35b6100f16102ee565b6040516100fe91906111d8565b60405180910390f35b610121600480360381019061011c919061128e565b610380565b005b61012b61051b565b60405161013891906112dd565b60405180910390f35b61015b600480360381019061015691906112f8565b610528565b005b6101776004803603810190610172919061128e565b61054b565b60405161018491906112dd565b60405180910390f35b6101a760048036038101906101a2919061134b565b6105fb565b6040516101b491906112dd565b60405180910390f35b6101d760048036038101906101d2919061134b565b61066a565b6040516101e49190611387565b60405180910390f35b610207600480360381019061020291906113a2565b61071b565b60405161021491906112dd565b60405180910390f35b6102376004803603810190610232919061134b565b6107d2565b60405161024491906111d8565b60405180910390f35b61025561087e565b60405161026291906111d8565b60405180910390f35b61028560048036038101906102809190611504565b610910565b005b6000806000837bffffffffffffffffffffffffffffffffffffffffffffffffffffffff19167bffffffffffffffffffffffffffffffffffffffffffffffffffffffff1916815260200190815260200160002060009054906101000a900460ff169050919050565b6060600180546102fd9061157c565b80601f01602080910402602001604051908101604052809291908181526020018280546103299061157c565b80156103765780601f1061034b57610100808354040283529160200191610376565b820191906000526020600020905b81548152906001019060200180831161035957829003601f168201915b5050505050905090565b600061038b8261066a565b90508073ffffffffffffffffffffffffffffffffffffffff168373ffffffffffffffffffffffffffffffffffffffff16036103fb576040517f08c379a00000000000000000000000000000000000000000000000000000000081526004016103f2906115f9565b60405180910390fd5b8073ffffffffffffffffffffffffffffffffffffffff163373ffffffffffffffffffffffffffffffffffffffff1614610469576040517f08c379a00000000000000000000000000000000000000000000000000000000081526004016104609061168b565b60405180910390fd5b826005600084815260200190815260200160002060006101000a81548173ffffffffffffffffffffffffffffffffffffffff021916908373ffffffffffffffffffffffffffffffffffffffff160217905550818373ffffffffffffffffffffffffffffffffffffffff168273ffffffffffffffffffffffffffffffffffffffff167f8c5be1e5ebec7d5bd14f71427d1e84f3dd0314c0f7b2291e5b200ac8c7c3b92560405160405180910390a4505050565b6000600680549050905090565b6105323382610a0c565b61053b57600080fd5b610546838383610a9b565b505050565b60006105568361071b565b8210610597576040517f08c379a000000000000000000000000000000000000000000000000000000000815260040161058e906116f7565b60405180910390fd5b600860008473ffffffffffffffffffffffffffffffffffffffff1673ffffffffffffffffffffffffffffffffffffffff16815260200190815260200160002082815481106105e8576105e7611717565b5b9060005260206000200154905092915050565b60006006805490508210610644576040517f08c379a000000000000000000000000000000000000000000000000000000000815260040161063b90611792565b60405180910390fd5b6006828154811061065857610657611717565b5b90600052602060002001549050919050565b6000806003600084815260200190815260200160002060009054906101000a900473ffffffffffffffffffffffffffffffffffffffff169050600073ffffffffffffffffffffffffffffffffffffffff168173ffffffffffffffffffffffffffffffffffffffff1603610712576040517f08c379a0000000000000000000000000000000000000000000000000000000008152600401610709906117fe565b60405180910390fd5b80915050919050565b60008073ffffffffffffffffffffffffffffffffffffffff168273ffffffffffffffffffffffffffffffffffffffff160361078b576040517f08c379a000000000000000000000000000000000000000000000000000000000815260040161078290611890565b60405180910390fd5b600460008373ffffffffffffffffffffffffffffffffffffffff1673ffffffffffffffffffffffffffffffffffffffff168152602001908152602001600020549050919050565b600a81815481106107e257600080fd5b9060005260206000200160009150905080546107fd9061157c565b80601f01602080910402602001604051908101604052809291908181526020018280546108299061157c565b80156108765780601f1061084b57610100808354040283529160200191610876565b820191906000526020600020905b81548152906001019060200180831161085957829003601f168201915b505050505081565b60606002805461088d9061157c565b80601f01602080910402602001604051908101604052809291908181526020018280546108b99061157c565b80156109065780601f106108db57610100808354040283529160200191610906565b820191906000526020600020905b8154815290600101906020018083116108e957829003601f168201915b5050505050905090565b600b8160405161092091906118ec565b908152602001604051809103902060009054906101000a900460ff161561097c576040517f08c379a000000000000000000000000000000000000000000000000000000000815260040161097390611975565b60405180910390fd5b600a819080600181540180825580915050600190039060005260206000200160009091909190915090816109b09190611b41565b5060006001600a805490506109c59190611c42565b90506109d13382610ce0565b6001600b836040516109e391906118ec565b908152602001604051809103902060006101000a81548160ff0219169083151502179055505050565b6000610a1782610d01565b610a56576040517f08c379a0000000000000000000000000000000000000000000000000000000008152600401610a4d90611cc2565b60405180910390fd5b6000610a618361066a565b90508073ffffffffffffffffffffffffffffffffffffffff168473ffffffffffffffffffffffffffffffffffffffff161491505092915050565b600073ffffffffffffffffffffffffffffffffffffffff168273ffffffffffffffffffffffffffffffffffffffff1603610b0a576040517f08c379a0000000000000000000000000000000000000000000000000000000008152600401610b0190611d54565b60405180910390fd5b8273ffffffffffffffffffffffffffffffffffffffff16610b2a8261066a565b73ffffffffffffffffffffffffffffffffffffffff1614610b80576040517f08c379a0000000000000000000000000000000000000000000000000000000008152600401610b7790611de6565b60405180910390fd5b6001600460008573ffffffffffffffffffffffffffffffffffffffff1673ffffffffffffffffffffffffffffffffffffffff1681526020019081526020016000206000828254610bd09190611c42565b925050819055506001600460008473ffffffffffffffffffffffffffffffffffffffff1673ffffffffffffffffffffffffffffffffffffffff1681526020019081526020016000206000828254610c279190611e06565b92505081905550816003600083815260200190815260200160002060006101000a81548173ffffffffffffffffffffffffffffffffffffffff021916908373ffffffffffffffffffffffffffffffffffffffff160217905550808273ffffffffffffffffffffffffffffffffffffffff168473ffffffffffffffffffffffffffffffffffffffff167fddf252ad1be2c89b69c2b068fc378daa952ba7f163c4a11628f55a4df523b3ef60405160405180910390a4505050565b610cea8282610d73565b610cf381610f6c565b610cfd8282610fb5565b5050565b6000806003600084815260200190815260200160002060009054906101000a900473ffffffffffffffffffffffffffffffffffffffff169050600073ffffffffffffffffffffffffffffffffffffffff168173ffffffffffffffffffffffffffffffffffffffff161415915050919050565b600073ffffffffffffffffffffffffffffffffffffffff168273ffffffffffffffffffffffffffffffffffffffff1603610de2576040517f08c379a0000000000000000000000000000000000000000000000000000000008152600401610dd990611e86565b60405180910390fd5b610deb81610d01565b15610e2b576040517f08c379a0000000000000000000000000000000000000000000000000000000008152600401610e2290611ef2565b60405180910390fd5b816003600083815260200190815260200160002060006101000a81548173ffffffffffffffffffffffffffffffffffffffff021916908373ffffffffffffffffffffffffffffffffffffffff1602179055506001600460008473ffffffffffffffffffffffffffffffffffffffff1673ffffffffffffffffffffffffffffffffffffffff16815260200190815260200160002054610ec99190611e06565b600460008473ffffffffffffffffffffffffffffffffffffffff1673ffffffffffffffffffffffffffffffffffffffff16815260200190815260200160002081905550808273ffffffffffffffffffffffffffffffffffffffff16600073ffffffffffffffffffffffffffffffffffffffff167fddf252ad1be2c89b69c2b068fc378daa952ba7f163c4a11628f55a4df523b3ef60405160405180910390a45050565b6006805490506007600083815260200190815260200160002081905550600681908060018154018082558091505060019003906000526020600020016000909190919091505550565b600860008373ffffffffffffffffffffffffffffffffffffffff1673ffffffffffffffffffffffffffffffffffffffff168152602001908152602001600020805490506009600083815260200190815260200160002081905550600860008373ffffffffffffffffffffffffffffffffffffffff1673ffffffffffffffffffffffffffffffffffffffff1681526020019081526020016000208190806001815401808255809150506001900390600052602060002001600090919091909150555050565b6000604051905090565b600080fd5b600080fd5b60007fffffffff0000000000000000000000000000000000000000000000000000000082169050919050565b6110c28161108d565b81146110cd57600080fd5b50565b6000813590506110df816110b9565b92915050565b6000602082840312156110fb576110fa611083565b5b6000611109848285016110d0565b91505092915050565b60008115159050919050565b61112781611112565b82525050565b6000602082019050611142600083018461111e565b92915050565b600081519050919050565b600082825260208201905092915050565b60005b83811015611182578082015181840152602081019050611167565b60008484015250505050565b6000601f19601f8301169050919050565b60006111aa82611148565b6111b48185611153565b93506111c4818560208601611164565b6111cd8161118e565b840191505092915050565b600060208201905081810360008301526111f2818461119f565b905092915050565b600073ffffffffffffffffffffffffffffffffffffffff82169050919050565b6000611225826111fa565b9050919050565b6112358161121a565b811461124057600080fd5b50565b6000813590506112528161122c565b92915050565b6000819050919050565b61126b81611258565b811461127657600080fd5b50565b60008135905061128881611262565b92915050565b600080604083850312156112a5576112a4611083565b5b60006112b385828601611243565b92505060206112c485828601611279565b9150509250929050565b6112d781611258565b82525050565b60006020820190506112f260008301846112ce565b92915050565b60008060006060848603121561131157611310611083565b5b600061131f86828701611243565b935050602061133086828701611243565b925050604061134186828701611279565b9150509250925092565b60006020828403121561136157611360611083565b5b600061136f84828501611279565b91505092915050565b6113818161121a565b82525050565b600060208201905061139c6000830184611378565b92915050565b6000602082840312156113b8576113b7611083565b5b60006113c684828501611243565b91505092915050565b600080fd5b600080fd5b7f4e487b7100000000000000000000000000000000000000000000000000000000600052604160045260246000fd5b6114118261118e565b810181811067ffffffffffffffff821117156114305761142f6113d9565b5b80604052505050565b6000611443611079565b905061144f8282611408565b919050565b600067ffffffffffffffff82111561146f5761146e6113d9565b5b6114788261118e565b9050602081019050919050565b82818337600083830152505050565b60006114a76114a284611454565b611439565b9050828152602081018484840111156114c3576114c26113d4565b5b6114ce848285611485565b509392505050565b600082601f8301126114eb576114ea6113cf565b5b81356114fb848260208601611494565b91505092915050565b60006020828403121561151a57611519611083565b5b600082013567ffffffffffffffff81111561153857611537611088565b5b611544848285016114d6565b91505092915050565b7f4e487b7100000000000000000000000000000000000000000000000000000000600052602260045260246000fd5b6000600282049050600182168061159457607f821691505b6020821081036115a7576115a661154d565b5b50919050565b7f6572726f722d617070726f76616c20746f2063757272656e74206f776e657200600082015250565b60006115e3601f83611153565b91506115ee826115ad565b602082019050919050565b60006020820190508181036000830152611612816115d6565b9050919050565b7f63757272656e742063616c6c6572206973206e6f7420746865206f776e65722060008201527f6f6620746f6b656e000000000000000000000000000000000000000000000000602082015250565b6000611675602883611153565b915061168082611619565b604082019050919050565b600060208201905081810360008301526116a481611668565b9050919050565b7f6f776e64657220696e646578206973206f7574206f6620626f756e6473000000600082015250565b60006116e1601d83611153565b91506116ec826116ab565b602082019050919050565b60006020820190508181036000830152611710816116d4565b9050919050565b7f4e487b7100000000000000000000000000000000000000000000000000000000600052603260045260246000fd5b7f676c6f62616c20696e646578206973206f7574206f6620626f756e6473000000600082015250565b600061177c601d83611153565b915061178782611746565b602082019050919050565b600060208201905081810360008301526117ab8161176f565b9050919050565b7f6f776e657220717565727920666f72206e6f6e2d6578697374656e7400000000600082015250565b60006117e8601c83611153565b91506117f3826117b2565b602082019050919050565b60006020820190508181036000830152611817816117db565b9050919050565b7f6f776e657220717565727920666f72206e6f6e206578697374656e7420746f6b60008201527f656e000000000000000000000000000000000000000000000000000000000000602082015250565b600061187a602283611153565b91506118858261181e565b604082019050919050565b600060208201905081810360008301526118a98161186d565b9050919050565b600081905092915050565b60006118c682611148565b6118d081856118b0565b93506118e0818560208601611164565b80840191505092915050565b60006118f882846118bb565b915081905092915050565b7f4572726f72202c206b727970746f4269726420616c726561647920657869737460008201527f6473000000000000000000000000000000000000000000000000000000000000602082015250565b600061195f602283611153565b915061196a82611903565b604082019050919050565b6000602082019050818103600083015261198e81611952565b9050919050565b60008190508160005260206000209050919050565b60006020601f8301049050919050565b600082821b905092915050565b6000600883026119f77fffffffffffffffffffffffffffffffffffffffffffffffffffffffffffffffff826119ba565b611a0186836119ba565b95508019841693508086168417925050509392505050565b6000819050919050565b6000611a3e611a39611a3484611258565b611a19565b611258565b9050919050565b6000819050919050565b611a5883611a23565b611a6c611a6482611a45565b8484546119c7565b825550505050565b600090565b611a81611a74565b611a8c818484611a4f565b505050565b5b81811015611ab057611aa5600082611a79565b600181019050611a92565b5050565b601f821115611af557611ac681611995565b611acf846119aa565b81016020851015611ade578190505b611af2611aea856119aa565b830182611a91565b50505b505050565b600082821c905092915050565b6000611b1860001984600802611afa565b1980831691505092915050565b6000611b318383611b07565b9150826002028217905092915050565b611b4a82611148565b67ffffffffffffffff811115611b6357611b626113d9565b5b611b6d825461157c565b611b78828285611ab4565b600060209050601f831160018114611bab5760008415611b99578287015190505b611ba38582611b25565b865550611c0b565b601f198416611bb986611995565b60005b82811015611be157848901518255600182019150602085019450602081019050611bbc565b86831015611bfe5784890151611bfa601f891682611b07565b8355505b6001600288020188555050505b505050505050565b7f4e487b7100000000000000000000000000000000000000000000000000000000600052601160045260246000fd5b6000611c4d82611258565b9150611c5883611258565b9250828203905081811115611c7057611c6f611c13565b5b92915050565b7f746f6b656e20646f6573206e6f74206578697374000000000000000000000000600082015250565b6000611cac601483611153565b9150611cb782611c76565b602082019050919050565b60006020820190508181036000830152611cdb81611c9f565b9050919050565b7f4e6f7420706f737369626c6520796f752063616e742073656e6420746f207a6560008201527f726f206164646565737300000000000000000000000000000000000000000000602082015250565b6000611d3e602a83611153565b9150611d4982611ce2565b604082019050919050565b60006020820190508181036000830152611d6d81611d31565b9050919050565b7f747279696e6720746f207472616e66657220746f6b656e20746865206164647260008201527f65737320646f6573206e6f74206f776e00000000000000000000000000000000602082015250565b6000611dd0603083611153565b9150611ddb82611d74565b604082019050919050565b60006020820190508181036000830152611dff81611dc3565b9050919050565b6000611e1182611258565b9150611e1c83611258565b9250828201905080821115611e3457611e33611c13565b5b92915050565b7f696e76616c696420616464647265737300000000000000000000000000000000600082015250565b6000611e70601083611153565b9150611e7b82611e3a565b602082019050919050565b60006020820190508181036000830152611e9f81611e63565b9050919050565b7f45524337323120746f6b656e20697320616c7265616479206d696e7465640000600082015250565b6000611edc601e83611153565b9150611ee782611ea6565b602082019050919050565b60006020820190508181036000830152611f0b81611ecf565b905091905056fea26469706673582212201ab6e6131feb69105b5f86382486dbe8d8d50d6cd1f5b80a4e547ba3bfe5785b64736f6c63430008110033",
  "immutableReferences": {},
  "source": "// SPDX-License-Identifier: MIT\r\n\r\npragma solidity ^0.8.0;\r\n\r\nimport './ERC721Connector.sol';\r\n\r\ncontract KryptoBird is ERC721Connector{\r\n    // array to store our nfts\r\n    string[] public kryptoBirdz;\r\n\r\n    mapping( string => bool) _kryptoBirdzExists;\r\n\r\n    function mint(string memory _kryptoBird) public {\r\n\r\n        require(!_kryptoBirdzExists[_kryptoBird],\"Error , kryptoBird already existds\");\r\n        //uint _id = KryptoBirdz.push(_kryptoBird); // .push no longer returns the length but a ref to the added element\r\n    \r\n        kryptoBirdz.push(_kryptoBird);\r\n        uint _id = kryptoBirdz.length - 1;\r\n\r\n        _mint(msg.sender, _id);\r\n\r\n        _kryptoBirdzExists[_kryptoBird] = true;\r\n    }\r\n\r\n    constructor() ERC721Connector('KryptoBird','KBIRDZ') {\r\n\r\n    }\r\n\r\n    \r\n    \r\n}\r\n\r\n\r\n",
  "sourcePath": "F:\\nft-marketplace-starter-kit-main\\src\\contracts\\KryptoBirdz.sol",
  "compiler": {
    "name": "solc",
    "version": "0.8.17+commit.8df45f5f.Emscripten.clang"
  },
  "schemaVersion": "3.4.9",
  "updatedAt": "2022-09-20T09:08:06.110Z",
  "networkType": "ethereum",
  "devdoc": {
    "kind": "dev",
    "methods": {
      "totalSupply()": {
        "returns": {
          "_0": "A count of valid NFTs tracked by this contract, where each one of  them has an assigned and queryable owner not equal to the zero address"
        }
      },
      "transferFrom(address,address,uint256)": {
        "details": "Throws unless `msg.sender` is the current owner, an authorized  operator, or the approved address for this NFT. Throws if `_from` is  not the current owner. Throws if `_to` is the zero address. Throws if  `_tokenId` is not a valid NFT.",
        "params": {
          "_from": "The current owner of the NFT",
          "_to": "The new owner",
          "_tokenId": "The NFT to transfer"
        }
      }
    },
    "version": 1
  },
  "userdoc": {
    "kind": "user",
    "methods": {
      "name()": {
        "notice": "A descriptive name for a collection of NFTs in this contract"
      },
      "symbol()": {
        "notice": "An abbreviated name for NFTs in this contract"
      },
      "totalSupply()": {
        "notice": "Count NFTs tracked by this contract"
      },
      "transferFrom(address,address,uint256)": {
        "notice": "Transfer ownership of an NFT -- THE CALLER IS RESPONSIBLE  TO CONFIRM THAT `_to` IS CAPABLE OF RECEIVING NFTS OR ELSE  THEY MAY BE PERMANENTLY LOST"
      }
    },
    "version": 1
  }
}